{
  "contractName": "PostList",
  "abi": [
    {
      "constant": true,
      "inputs": [
        {
          "name": "",
          "type": "uint256"
        }
      ],
      "name": "posts",
      "outputs": [
        {
          "name": "id",
          "type": "uint256"
        },
        {
          "name": "author",
          "type": "string"
        },
        {
          "name": "body",
          "type": "string"
        }
      ],
      "payable": false,
      "stateMutability": "view",
      "type": "function",
      "signature": "0x0b1e7f83"
    },
    {
      "constant": true,
      "inputs": [],
      "name": "postCount",
      "outputs": [
        {
          "name": "",
          "type": "uint256"
        }
      ],
      "payable": false,
      "stateMutability": "view",
      "type": "function",
      "signature": "0x17906c2e"
    },
    {
      "constant": false,
      "inputs": [
        {
          "name": "_author",
          "type": "string"
        },
        {
          "name": "_body",
          "type": "string"
        }
      ],
      "name": "createPost",
      "outputs": [],
      "payable": false,
      "stateMutability": "nonpayable",
      "type": "function",
      "signature": "0x392338f5"
    }
  ],
  "bytecode": "0x60806040526000805534801561001457600080fd5b506105cc806100246000396000f3fe608060405260043610610057576000357c0100000000000000000000000000000000000000000000000000000000900463ffffffff1680630b1e7f831461005c57806317906c2e14610183578063392338f5146101ae575b600080fd5b34801561006857600080fd5b506100956004803603602081101561007f57600080fd5b810190808035906020019092919050505061030d565b604051808481526020018060200180602001838103835285818151815260200191508051906020019080838360005b838110156100df5780820151818401526020810190506100c4565b50505050905090810190601f16801561010c5780820380516001836020036101000a031916815260200191505b50838103825284818151815260200191508051906020019080838360005b8381101561014557808201518184015260208101905061012a565b50505050905090810190601f1680156101725780820380516001836020036101000a031916815260200191505b509550505050505060405180910390f35b34801561018f57600080fd5b50610198610467565b6040518082815260200191505060405180910390f35b3480156101ba57600080fd5b5061030b600480360360408110156101d157600080fd5b81019080803590602001906401000000008111156101ee57600080fd5b82018360208201111561020057600080fd5b8035906020019184600183028401116401000000008311171561022257600080fd5b91908080601f016020809104026020016040519081016040528093929190818152602001838380828437600081840152601f19601f8201169050808301925050505050505091929192908035906020019064010000000081111561028557600080fd5b82018360208201111561029757600080fd5b803590602001918460018302840111640100000000831117156102b957600080fd5b91908080601f016020809104026020016040519081016040528093929190818152602001838380828437600081840152601f19601f82011690508083019250505050505050919291929050505061046d565b005b6001602052806000526040600020600091509050806000015490806001018054600181600116156101000203166002900480601f0160208091040260200160405190810160405280929190818152602001828054600181600116156101000203166002900480156103bf5780601f10610394576101008083540402835291602001916103bf565b820191906000526020600020905b8154815290600101906020018083116103a257829003601f168201915b505050505090806002018054600181600116156101000203166002900480601f01602080910402602001604051908101604052809291908181526020018280546001816001161561010002031660029004801561045d5780601f106104325761010080835404028352916020019161045d565b820191906000526020600020905b81548152906001019060200180831161044057829003601f168201915b5050505050905083565b60005481565b600080815480929190600101919050555060606040519081016040528060005481526020018381526020018281525060016000805481526020019081526020016000206000820151816000015560208201518160010190805190602001906104d69291906104fb565b5060408201518160020190805190602001906104f39291906104fb565b509050505050565b828054600181600116156101000203166002900490600052602060002090601f016020900481019282601f1061053c57805160ff191683800117855561056a565b8280016001018555821561056a579182015b8281111561056957825182559160200191906001019061054e565b5b509050610577919061057b565b5090565b61059d91905b80821115610599576000816000905550600101610581565b5090565b9056fea165627a7a72305820ef584fb24e709dc49af5a9b56ef8f0aad3c904d927522cbb47af482d8156e4730029",
  "source": "pragma solidity >=0.4.21 <0.7.0;\r\n\r\ncontract PostList {\r\n    uint public postCount = 0;\r\n\r\n    struct post {\r\n        uint id;\r\n        string author;\r\n        string body;\r\n    }\r\n\r\n    mapping(uint => post) public posts;\r\n\r\n    // constructor() public {\r\n    //     createPost(\"Tester\", \"Test post\");\r\n    // }    \r\n\r\n    function createPost(string memory _author, string memory _body) public {\r\n        postCount ++;\r\n        posts[postCount] = post(postCount, _author, _body);\r\n    }\r\n}\r\n",
  "sourcePath": "E:/projects/crypto/eth-blog/contracts/PostList.sol",
  "compiler": {
    "name": "solc",
    "version": "0.5.0+commit.1d4f565a.Emscripten.clang"
  },
  "schemaVersion": "3.0.1",
  "updatedAt": "2022-01-02T21:22:47.028Z",
  "devdoc": {
    "methods": {}
  },
  "userdoc": {
    "methods": {}
  }
}