{
  "contractName": "PostList",
  "abi": [
    {
      "inputs": [],
      "name": "postCount",
      "outputs": [
        {
          "internalType": "uint256",
          "name": "",
          "type": "uint256"
        }
      ],
      "stateMutability": "view",
      "type": "function",
      "constant": true
    },
    {
      "inputs": [
        {
          "internalType": "uint256",
          "name": "",
          "type": "uint256"
        }
      ],
      "name": "posts",
      "outputs": [
        {
          "internalType": "uint256",
          "name": "id",
          "type": "uint256"
        },
        {
          "internalType": "string",
          "name": "author",
          "type": "string"
        },
        {
          "internalType": "string",
          "name": "body",
          "type": "string"
        }
      ],
      "stateMutability": "view",
      "type": "function",
      "constant": true
    },
    {
      "inputs": [
        {
          "internalType": "string",
          "name": "_author",
          "type": "string"
        },
        {
          "internalType": "string",
          "name": "_body",
          "type": "string"
        }
      ],
      "name": "createPost",
      "outputs": [],
      "stateMutability": "nonpayable",
      "type": "function"
    },
    {
      "inputs": [],
      "name": "getPostCount",
      "outputs": [
        {
          "internalType": "uint256",
          "name": "",
          "type": "uint256"
        }
      ],
      "stateMutability": "view",
      "type": "function",
      "constant": true
    },
    {
      "inputs": [],
      "name": "getPosts",
      "outputs": [
        {
          "components": [
            {
              "internalType": "uint256",
              "name": "id",
              "type": "uint256"
            },
            {
              "internalType": "string",
              "name": "author",
              "type": "string"
            },
            {
              "internalType": "string",
              "name": "body",
              "type": "string"
            }
          ],
          "internalType": "struct PostList.Post[]",
          "name": "",
          "type": "tuple[]"
        }
      ],
      "stateMutability": "view",
      "type": "function",
      "constant": true
    }
  ],
  "bytecode": "0x60806040526000805534801561001457600080fd5b50610b8f806100246000396000f3fe608060405234801561001057600080fd5b50600436106100575760003560e01c80630b1e7f831461005c57806317906c2e1461008e578063392338f5146100ac57806341f3004a146100c8578063bcc95407146100e6575b600080fd5b610076600480360381019061007191906105db565b610104565b604051610085939291906106b0565b60405180910390f35b61009661023e565b6040516100a391906106f5565b60405180910390f35b6100c660048036038101906100c19190610845565b610244565b005b6100d06102d7565b6040516100dd9190610a2f565b60405180910390f35b6100ee6104c4565b6040516100fb91906106f5565b60405180910390f35b600160205280600052604060002060009150905080600001549080600101805461012d90610a80565b80601f016020809104026020016040519081016040528092919081815260200182805461015990610a80565b80156101a65780601f1061017b576101008083540402835291602001916101a6565b820191906000526020600020905b81548152906001019060200180831161018957829003601f168201915b5050505050908060020180546101bb90610a80565b80601f01602080910402602001604051908101604052809291908181526020018280546101e790610a80565b80156102345780601f1061020957610100808354040283529160200191610234565b820191906000526020600020905b81548152906001019060200180831161021757829003601f168201915b5050505050905083565b60005481565b60008081548092919061025690610ae1565b9190505550604051806060016040528060005481526020018381526020018281525060016000805481526020019081526020016000206000820151816000015560208201518160010190805190602001906102b29291906104cd565b5060408201518160020190805190602001906102cf9291906104cd565b509050505050565b60606000805467ffffffffffffffff8111156102f6576102f561071a565b5b60405190808252806020026020018201604052801561032f57816020015b61031c610553565b8152602001906001900390816103145790505b50905060005b6000548110156104bc57600160008281526020019081526020016000206040518060600160405290816000820154815260200160018201805461037790610a80565b80601f01602080910402602001604051908101604052809291908181526020018280546103a390610a80565b80156103f05780601f106103c5576101008083540402835291602001916103f0565b820191906000526020600020905b8154815290600101906020018083116103d357829003601f168201915b5050505050815260200160028201805461040990610a80565b80601f016020809104026020016040519081016040528092919081815260200182805461043590610a80565b80156104825780601f1061045757610100808354040283529160200191610482565b820191906000526020600020905b81548152906001019060200180831161046557829003601f168201915b50505050508152505082828151811061049e5761049d610b2a565b5b602002602001018190525080806104b490610ae1565b915050610335565b508091505090565b60008054905090565b8280546104d990610a80565b90600052602060002090601f0160209004810192826104fb5760008555610542565b82601f1061051457805160ff1916838001178555610542565b82800160010185558215610542579182015b82811115610541578251825591602001919060010190610526565b5b50905061054f9190610574565b5090565b60405180606001604052806000815260200160608152602001606081525090565b5b8082111561058d576000816000905550600101610575565b5090565b6000604051905090565b600080fd5b600080fd5b6000819050919050565b6105b8816105a5565b81146105c357600080fd5b50565b6000813590506105d5816105af565b92915050565b6000602082840312156105f1576105f061059b565b5b60006105ff848285016105c6565b91505092915050565b610611816105a5565b82525050565b600081519050919050565b600082825260208201905092915050565b60005b83811015610651578082015181840152602081019050610636565b83811115610660576000848401525b50505050565b6000601f19601f8301169050919050565b600061068282610617565b61068c8185610622565b935061069c818560208601610633565b6106a581610666565b840191505092915050565b60006060820190506106c56000830186610608565b81810360208301526106d78185610677565b905081810360408301526106eb8184610677565b9050949350505050565b600060208201905061070a6000830184610608565b92915050565b600080fd5b600080fd5b7f4e487b7100000000000000000000000000000000000000000000000000000000600052604160045260246000fd5b61075282610666565b810181811067ffffffffffffffff821117156107715761077061071a565b5b80604052505050565b6000610784610591565b90506107908282610749565b919050565b600067ffffffffffffffff8211156107b0576107af61071a565b5b6107b982610666565b9050602081019050919050565b82818337600083830152505050565b60006107e86107e384610795565b61077a565b90508281526020810184848401111561080457610803610715565b5b61080f8482856107c6565b509392505050565b600082601f83011261082c5761082b610710565b5b813561083c8482602086016107d5565b91505092915050565b6000806040838503121561085c5761085b61059b565b5b600083013567ffffffffffffffff81111561087a576108796105a0565b5b61088685828601610817565b925050602083013567ffffffffffffffff8111156108a7576108a66105a0565b5b6108b385828601610817565b9150509250929050565b600081519050919050565b600082825260208201905092915050565b6000819050602082019050919050565b6108f2816105a5565b82525050565b600082825260208201905092915050565b600061091482610617565b61091e81856108f8565b935061092e818560208601610633565b61093781610666565b840191505092915050565b600060608301600083015161095a60008601826108e9565b50602083015184820360208601526109728282610909565b9150506040830151848203604086015261098c8282610909565b9150508091505092915050565b60006109a58383610942565b905092915050565b6000602082019050919050565b60006109c5826108bd565b6109cf81856108c8565b9350836020820285016109e1856108d9565b8060005b85811015610a1d57848403895281516109fe8582610999565b9450610a09836109ad565b925060208a019950506001810190506109e5565b50829750879550505050505092915050565b60006020820190508181036000830152610a4981846109ba565b905092915050565b7f4e487b7100000000000000000000000000000000000000000000000000000000600052602260045260246000fd5b60006002820490506001821680610a9857607f821691505b60208210811415610aac57610aab610a51565b5b50919050565b7f4e487b7100000000000000000000000000000000000000000000000000000000600052601160045260246000fd5b6000610aec826105a5565b91507fffffffffffffffffffffffffffffffffffffffffffffffffffffffffffffffff821415610b1f57610b1e610ab2565b5b600182019050919050565b7f4e487b7100000000000000000000000000000000000000000000000000000000600052603260045260246000fdfea2646970667358221220b3ad5d88238b209a8349b4acc5f2359c723e8fe1dd94f515229c5bee46d4996a64736f6c634300080b0033",
  "immutableReferences": {},
  "source": "// SPDX-License-Identifier: MIT\r\npragma solidity ^0.8.11;\r\n\r\ncontract PostList {\r\n    uint public postCount = 0;\r\n\r\n    struct Post {\r\n        uint id;\r\n        string author;\r\n        string body;\r\n    }\r\n\r\n    mapping(uint => Post) public posts;\r\n    // Post[] posts;\r\n\r\n    // constructor() public {\r\n    //     createPost(\"Tester\", \"Test post\");\r\n    // }\r\n\r\n    function createPost(string memory _author, string memory _body) public {\r\n        postCount ++;\r\n        posts[postCount] = Post(postCount, _author, _body);\r\n    }\r\n\r\n    function getPostCount() public view returns (uint) {\r\n        return postCount;\r\n    }\r\n\r\n    function getPosts() public view returns (Post[] memory) {\r\n        Post[] memory list = new Post[](postCount);\r\n        for(uint i = 0; i < postCount; i++) {\r\n            list[i] = posts[i];\r\n        }\r\n        return list;\r\n    }\r\n}\r\n",
  "sourcePath": "E:\\projects\\crypto\\eth-blog\\contracts\\PostList.sol",
  "compiler": {
    "name": "solc",
    "version": "0.8.11+commit.d7f03943.Emscripten.clang"
  },
  "schemaVersion": "3.4.4",
  "updatedAt": "2022-01-31T07:21:52.111Z",
  "networkType": "ethereum",
  "devdoc": {
    "kind": "dev",
    "methods": {},
    "version": 1
  },
  "userdoc": {
    "kind": "user",
    "methods": {},
    "version": 1
  }
}